:100CA700EF1FAA0670011E4A60107C037D52ED1DDE
:0A0CB700AA0470011C4A60E880F4F2
:010CC1002210
:1006F200EFD3940440037F0122EF702D9000021289
:100702000436B40104D2A88002C2A89000011204E7
:1007120036B40104D2B88002C2B812041DB4010476
:10072200D2888002C2887F0022EF6401702D90007F
:1007320002120436B40104D2AA8002C2AA900001B5
:10074200120436B40104D2BA8002C2BA12041DB431
:100752000104D28A8002C28A7F0022BF0214900062
:1007620002120436B40105438F108003538FEF7FCA
:100772000022BF0314900002120436B40105438F15
:10078200208003538FDF7F0022BF041490000212E7
:100792000436B40105438F408003538FBF7F00228C
:0307A2007F0222B1
:10025900EFD3940540037F012212041DFED39403BA
:1002690040037F0222EF7041EE700B9000011204EF
:1002790036F45293529412041DB4010B90000112EA
:1002890004364293F4529412041DFEB4020A9000FB
:100299000112043642934294EEB4030D9000011208
:1002A9000436FEF45293EE4294EF64017043120453
:1002B9001DFE700B900001120436F452915292EE19
:1002C900B4010B9000011204364291F452921204C7
:1002D9001DB4020A9000011204364291429212049E
:1002E9001DB4030D900001120436FEF45291EE4242
:1002F90092EF6402704312041DFE700B900001120C
:100309000436F452955296EEB4010B900001120492
:10031900364295F4529612041DB4020A9000011255
:1003290004364295429612041DB4030D9000011241
:100339000436FEF45295EE4296EF640370431204BC
:100349001DFE700B900001120436F452B152B2EE48
:10035900B4010B90000112043642B1F452B21204F6
:100369001DB4020A90000112043642B142B21204CD
:100379001DB4030D900001120436FEF452B1EE4291
:10038900B2EF6404704312041DFE700B9000011259
:100399000436F452B352B4EEB4010B9000011204C6
:1003A9003642B3F452B412041DB4020A9000011289
:1003B900043642B342B412041DB4030D9000011275
:1003C9000436FEF452B3EE42B4EF640570431204EE
:1003D9001DFF700B900001120436F452C952CAEF86
:1003E900B4010B90000112043642C9F452CA120436
:1003F9001DB4020A90000112043642C942CA12040D
:100409001DB4030D900001120436FFF452C9EF42E6
:04041900CA7F002274
:030CF200D2042207
:030CF500C2042214
:10001E0075F00A84E5F02430FF8F09C0E088E0C057
:10002E00E089E0C0E08FE07908C2B17816D8FE0012
:10003E00001392B1781500D8FED9F6D2B17816D841
:10004E00FE000078FFD8FED0E0A9E0D0E0A8E0D016
:03005E00E0D322CA
:100BE000AD07AC06A2049206120CF28D828C83E44F
:100BF0009360100DED70010C14F582E493FF120068
:0A0C00002780E8200603120CF522FD
:100AD900AE07A2049206120CF2EEC4540FFFC3949F
:100AE9000A4006EF2437FF8007EEC4540F2430FF75
:100AF900120027EE540FFFC3940A4006EF2437FF74
:100B09008006EE540F2430FF120027200603120C32
:020B1900F522C3
:100C0A00AE07A2049206120CF2EE75F06484243048
:100C1A00FF120027EE75F00A8412001EEE12001E63
:070C2A00200603120CF52265
:03000B00020A4B9B
:100A4B00C0E0C0F0C083C082C0D075D000C000C071
:100A5B0001C002C003C004C005C006C007E52D4598
:100A6B002E452C6007AA2DA92E120527D007D006DC
:100A7B00D005D004D003D002D001D000D0D0D0828A
:070A8B00D083D0F0D0E0326F
:03001B00020A9244
:100A9200C0E0C0F0C083C082C0D075D000C000C02A
:100AA20001C002C003C004C005C006C007E530454E
:100AB20031452F6007AA30A931120527D007D00689
:100AC200D005D004D003D002D001D000D0D0D08243
:070AD200D083D0F0D0E03228
:0300630002006137
:01006100326C
:100066008B188A19891AAD07EDD3940240037F01D4
:1000760022ED6003020126C28CAB18AA19A91A90B8
:1000860000081204F78B2C8A2D892EAB18AA19A901
:100096001A900002120436B40104D2A98002C2A941
:1000A600900001120436B40104D2B98002C2B9121A
:1000B600041DFED3940340037F0222E58954FC4EBF
:1000C600F589900003120436FFB40103538E7FEFC7
:1000D6007003438E80EFB40205438904800353897D
:1000E600FBAB18AA19A91A900004120436B401052C
:1000F600438F018003538FFEAB18AA19A91A9000EB
:1001060005120475FBAAF0EAF58C8B8AAB18AA19BE
:10011600A91A900007120436B40102D28C7F00227D
:10012600ED640160030201D7C28EAB18AA19A91AA1
:100136009000081204F78B2F8A308931AB18AA1960
:10014600A91A900002120436B40104D2AB8002C28E
:10015600AB900001120436B40104D2BB8002C2BBCC
:1001660012041DFEC3940340037F0222E58954CF87
:100176004EF589900003120436FFB40103538EBF77
:10018600EF7003438E40EFB402054389408003536A
:1001960089BFAB18AA19A91A900004120436B40133
:1001A60005438F028003538FFDAB18AA19A91A9035
:1001B6000005120475FBAAF0EAF58D8B8BAB18AA25
:1001C60019A91A900007120436B40102D28E7F00D4
:1001D60022ED6402707A538EEFAB18AA19A91A9011
:1001E6000002120436B4010543AF04800353AFFB8B
:1001F600900003120436FED3940240037F0222EEDF
:10020600B40103538EFB9000031204367003438E31
:1002160004900003120436B40205438E088003538B
:100226008EF7900004120436B40105438F04800350
:10023600538FFB900005120475FDACF0ECF5D68DDE
:10024600D7900007120436B40103438E107F0022B4
:030256007F022202
:100831000A0D00696E707574206B65796576656E59
:10084100742000726376206B65793A20307800015C
:100851002D2D3AC5032D2D6798042D2D45BA422D16
:100861002D58A71A2D2D30CF182D2D33CC192D2D04
:1008710032CD132D2D47B8142D2D48B7152D2D59D7
:10088100A6162D2D5AA5172D2D31CE551AA1DC7383
:10089100561AA1DC4357C001102E572D2D4CB357CA
:0908A1000C0C0FF0580C0C1AE5C8
:080CDA00C180C10102360000D7
:10091A007508017509017B007A0079087F031202C4
:10092A0059E4F508750902FB7A0079087F03120277
:10093A0059E4F508750904FB7A0079087F03120265
:10094A0059A200B392B2E4F508750908FB7A007956
:10095A00087F03120259A201B392B3E4F50875099C
:10096A0010FB7A0079087F03120259D2B475080184
:0E097A007509207B007A0079087F030202597C
:100C53008F087E087F31120BE07E087F34120BE091
:0C0C6300AF08120C0A7E087F31020BE083
:060554008B088A09890AE8
:10055A00750B12900001120436FFE4FCFDFE7810C0
:10056A001204D4C004C005C006C00712041DFFE46B
:10057A00FCFDFE78181204D4D003D002D001D000BA
:10058A00EF4BFFEE4AFEED49FDEC48FCC004C00506
:10059A00C006C007AB08AA09A90A900002120436CD
:1005AA00FFE4FCFDFE78081204D4D003D002D00187
:1005BA00D000EF4BFFEE4AFEED49FDEC48FCC004CB
:1005CA00C005C006C007AB08AA09A90A9000031211
:1005DA000436FFD003D002D001D000EB4FF510EA69
:1005EA00F50FE9F50EE8F50DE4F50CE50CC3950BEE
:1005FA005037E50C75F005A42451F582E43408F56A
:10060A00831204E7AB10AA0FA90EA80DC31204C3E4
:10061A007013E50C75F005A42450F582E43408F54E
:0B062A0083E493FF22050C80C27F00D8
:0106350022A2
:100B8500EF602124AA600E14600F14601024037016
:100B950010D200800FC200800BB2008007B2018026
:0F0BA50003120C53A200B392B2A201B392B32277
:10098800D2AF5397F812091A1200030537E537AEAC
:10099800367002053614FFE4FCFD7B507AC3F9F883
:1009A800C31204AD50034397077B007A00793212D3
:1009B8000B1B50D77E087F44120BE0AF32120AD9C6
:1009C800AF33120AD9AF34120AD9AF35120AD97E19
:1009D800087F31120BE07B007A007932120554123D
:0909E8000B85E4F536F53780A219
:020CE200C1034C
:050CED00C2ABD203229E
:100C3100E4F50D750E01F50F751001F511F512F5BD
:100C410013F514F515F516F517FB7A00790DFF026A
:020C510000663B
:100BB400E4F508F509A20633FFF50A750B02E4F51E
:100BC4000C74FFF50DF50E8F0FF51075110C7512E1
:0C0BD400ED7B007A0079087F01020066CA
:100C6F00E4FFFEF58AF58CD28C20B505E58C30E7D4
:0C0C7F00F8C28CAF8CEFFEAD8AEDFF22B6
:100C8B00E4FFFEF58AF58CD28C30B505E58C30E7A8
:0C0C9B00F8C28CAF8CEFFEAD8AEDFF229A
:100636008B0D8A0E890F120C8B8E108F11C3E5114C
:100646009466E510940E400BD3E5119400E51094E2
:10065600124002C322E4FCE4F512120C6F8E108FD6
:1006660011C3E51194B8E5109400400BD3E511943D
:10067600E1E51094024002C322120C8B8E108F11FA
:10068600C3E51194B8E5109400400BD3E5119433FB
:10069600E51094074002C322AB0DECFF3395E0FE54
:1006A600E50F2FF9E50E3EFA12041DC3131204637B
:1006B600D3E5119408E51094044018AB0DECFF3314
:1006C60095E0FEE50F2FF9E50E3EFA12041D448073
:1006D6001204630512C3E51264809488500302066F
:0C06E600600CEC6404600302065DD3228B
:100B1B008B088A09890AC206200302C3225397F85D
:100B2B00120C31120C6FD3EF94B8EE940B4013EF01
:100B3B009433EE9422500BAB08AA09A90A1206367D
:090B4B009206C203D2ABA20622FD
:08000300D206120BB4C2032265
:080CE500C206120BB4C2032287
:0C0CC200300202B2B4E51F6002151F22D0
:1009F100E4F521752201A20533FFF523752401E4F5
:100A0100F5257526FF75276F8F287529FF752A0C27
:100A1100752BC2FB7A007921FF020066D2B40078FF
:100A210021D8FEC2B47821D8FE227915120A1DD927
:100A3100FB7A0C7981D9FEDAFA227915120A1DD9CD
:0A0A4100FB7A207992D9FEDAFA223E
:1008AA008B1B8A1C891DC0E088E0C0E089E0C0E09B
:1008BA008AE0C0E08BE0C0E08CE0C0E08DE0C0E000
:1008CA00E9FD79AA7AAA120A1DD9FB120A1DDAFBD6
:1008DA007A3179FFD9FEDAFA7C04EDF8E60D7B0865
:1008EA00134006120A2B0208F6120A3BDBF2DCEA74
:1008FA0078FFD8FED0E0ADE0D0E0ACE0D0E0ABE0ED
:10090A00D0E0AAE0D0E0A9E0D0E0A8E0D0E0C3229D
:0C0CCE00D2B4C202E4F51FD2050209F105
:0D000E00C2051209F1D2B4C202E4F51F22AE
:100B5400751E02120CCE20031C751F0AD202E51F5B
:100B640070FCC20230030EC203D2AB7F017E0012BE
:100B74000CA7D51EE112000EE51E7003D38001C33D
:010B8400224E
:030000000207A54F
:0C07A500787FE4F6D8FD7581370207EC80
:10041D00BB010689828A83E0225002E722BBFE02DD
:09042D00E32289828A83E4932210
:10043600BB010CE58229F582E5833AF583E022507B
:1004460006E92582F8E622BBFE06E92582F8E222C5
:0D045600E58229F582E5833AF583E49322DF
:10046300BB010689828A83F0225002F722BBFE0178
:02047300F32272
:10047500BB0110E58229F582E5833AF583E0F5F0C5
:10048500A3E0225009E92582F886F008E622BBFEA2
:100495000AE92582F8E2F5F008E222E5832AF583E8
:0804A500E993F5F0A3E99322AD
:1004AD00EB9FF5F0EA9E42F0E99D42F0EC6480C8C6
:0604BD0064809845F02266
:1004C300EB9FF5F0EA9E42F0E99D42F0E89C45F08F
:0104D3002206
:1004D400E8600FEFC333FFEE33FEED33FDEC33FC86
:0304E400D8F1222A
:1004E700E493FC740193FD740293FE740393FF225B
:1004F700BB010DE58229F582E5833AF583020536CE
:100507005007E92582F802052DBBFE07E92582F889
:1005170002053FE58229F582E5833AF5830205481E
:060527008A838982E4735F
:1007B100020988E493A3F8E493A34003F68001F2CD
:1007C10008DFF48029E493A3F85407240CC8C33349
:1007D100C4540F4420C8834004F456800146F6DF18
:1007E100E4800B0102040810204080900CDAE47EC2
:1007F100019360BCA3FF543F30E509541FFEE4930D
:10080100A360010ECF54C025E060A840B8E493A3D3
:10081100FAE493A3F8E493A3C8C582C8CAC583CAFE
:10082100F0A3C8C582C8CAC583CADFE9DEE780BEB6
:010CE400000F
:09052D00E6FB08E6FA08E6F922F3
:09053600E0FBA3E0FAA3E0F922C6
:09053F00E2FB08E2FA08E2F922ED
:0C054800E493FB740193FA740293F9220F
:00000001FF
