:100BB900EF1FAA0670011E4A60107C037D52ED1DCD
:0A0BC900AA0470011C4A60E880F4E1
:010BD30022FF
:1006DC00EFD3940440037F0122EF702D900002129F
:1006EC000436B40104D2A88002C2A89000011204FE
:1006FC0036B40104D2B88002C2B812041DB401048D
:10070C00D2888002C2887F0022EF6401702D900095
:10071C0002120436B40104D2AA8002C2AA900001CB
:10072C00120436B40104D2BA8002C2BA12041DB447
:10073C000104D28A8002C28A7F0022BF0214900078
:10074C0002120436B40105438F108003538FEF7FE0
:10075C000022BF0314900002120436B40105438F2B
:10076C00208003538FDF7F0022BF041490000212FD
:10077C000436B40105438F408003538FBF7F0022A2
:03078C007F0222C7
:10025900EFD3940540037F012212041DFED39403BA
:1002690040037F0222EF7041EE700B9000011204EF
:1002790036F45293529412041DB4010B90000112EA
:1002890004364293F4529412041DFEB4020A9000FB
:100299000112043642934294EEB4030D9000011208
:1002A9000436FEF45293EE4294EF64017043120453
:1002B9001DFE700B900001120436F452915292EE19
:1002C900B4010B9000011204364291F452921204C7
:1002D9001DB4020A9000011204364291429212049E
:1002E9001DB4030D900001120436FEF45291EE4242
:1002F90092EF6402704312041DFE700B900001120C
:100309000436F452955296EEB4010B900001120492
:10031900364295F4529612041DB4020A9000011255
:1003290004364295429612041DB4030D9000011241
:100339000436FEF45295EE4296EF640370431204BC
:100349001DFE700B900001120436F452B152B2EE48
:10035900B4010B90000112043642B1F452B21204F6
:100369001DB4020A90000112043642B142B21204CD
:100379001DB4030D900001120436FEF452B1EE4291
:10038900B2EF6404704312041DFE700B9000011259
:100399000436F452B352B4EEB4010B9000011204C6
:1003A9003642B3F452B412041DB4020A9000011289
:1003B900043642B342B412041DB4030D9000011275
:1003C9000436FEF452B3EE42B4EF640570431204EE
:1003D9001DFF700B900001120436F452C952CAEF86
:1003E900B4010B90000112043642C9F452CA120436
:1003F9001DB4020A90000112043642C942CA12040D
:100409001DB4030D900001120436FFF452C9EF42E6
:04041900CA7F002274
:030C0200D20422F7
:030C0500C2042204
:10001E0075F00A84E5F02430FF8F09C0E088E0C057
:10002E00E089E0C0E08FE07908C2B17816D8FE0012
:10003E00001392B1781500D8FED9F6D2B17816D841
:10004E00FE000078FFD8FED0E0A9E0D0E0A8E0D016
:03005E00E0D322CA
:100AF200AD07AC06A2049203120C028D828C83E431
:100B02009360100DED70010C14F582E493FF120056
:0A0B12002780E8200303120C0522DF
:1009C300AE07A2049202120C02EEC4540FFFC394AA
:1009D3000A4006EF2437FF8007EEC4540F2430FF8C
:1009E300120027EE540FFFC3940A4006EF2437FF8B
:1009F3008006EE540F2430FF120027200203120C4E
:020A03000522CA
:100B1C00AE07A2049203120C02EE75F0648424302A
:100B2C00FF120027EE75F00A8412001EEE12001E52
:070B3C00200303120C052247
:03000B000208F2F6
:1008F200C0E0C0F0C083C082C0D075D000C000C0CC
:1009020001C002C003C004C005C006C007E52D45F2
:100912002E452C6007AA2DA92E120511D007D0064C
:10092200D005D004D003D002D001D000D0D0D082E4
:07093200D083D0F0D0E032C9
:03001B000209399E
:10093900C0E0C0F0C083C082C0D075D000C000C084
:1009490001C002C003C004C005C006C007E53045A8
:1009590031452F6007AA30A931120511D007D006F9
:10096900D005D004D003D002D001D000D0D0D0829D
:07097900D083D0F0D0E03282
:03006300020C0884
:010C080032B9
:100066008B188A19891AAD07EDD3940240037F01D4
:1000760022ED6003020126C28CAB18AA19A91A90B8
:1000860000081204E18B2C8A2D892EAB18AA19A917
:100096001A900002120436B40104D2A98002C2A941
:1000A600900001120436B40104D2B98002C2B9121A
:1000B600041DFED3940340037F0222E58954FC4EBF
:1000C600F589900003120436FFB40103538E7FEFC7
:1000D6007003438E80EFB40205438904800353897D
:1000E600FBAB18AA19A91A900004120436B401052C
:1000F600438F018003538FFEAB18AA19A91A9000EB
:1001060005120475FBAAF0EAF58C8B8AAB18AA19BE
:10011600A91A900007120436B40102D28C7F00227D
:10012600ED640160030201D7C28EAB18AA19A91AA1
:100136009000081204E18B2F8A308931AB18AA1976
:10014600A91A900002120436B40104D2AB8002C28E
:10015600AB900001120436B40104D2BB8002C2BBCC
:1001660012041DFEC3940340037F0222E58954CF87
:100176004EF589900003120436FFB40103538EBF77
:10018600EF7003438E40EFB402054389408003536A
:1001960089BFAB18AA19A91A900004120436B40133
:1001A60005438F028003538FFDAB18AA19A91A9035
:1001B6000005120475FBAAF0EAF58D8B8BAB18AA25
:1001C60019A91A900007120436B40102D28E7F00D4
:1001D60022ED6402707A538EEFAB18AA19A91A9011
:1001E6000002120436B4010543AF04800353AFFB8B
:1001F600900003120436FED3940240037F0222EEDF
:10020600B40103538EFB9000031204367003438E31
:1002160004900003120436B40205438E088003538B
:100226008EF7900004120436B40105438F04800350
:10023600538FFB900005120475FDACF0ECF5D68DDE
:10024600D7900007120436B40103438E107F0022B4
:030256007F022202
:10081B000A0D00696E707574206B65796576656E6F
:10082B00742000726376206B65793A203078000172
:10083B002D2D3AC5032D2D6798042D2D45BA422D2C
:10084B002D58A71A2D2D30CF182D2D33CC192D2D1A
:10085B0032CD132D2D47B8142D2D48B7152D2D59ED
:10086B00A6162D2D5AA5172D2D31CE551AA1DC7399
:0F087B00561AA1DC4357C001102E572D2D4CB338
:060BEC00C1050232000009
:10088A007508017509017B007A0079087F03120255
:10089A0059E4F508750902FB7A0079087F03120208
:1008AA0059E4F508750904FB7A0079087F031202F6
:1008BA0059D2B2E4F508750908FB7A0079087F0372
:1008CA00120259D2B3E4F508750910FB7A007908C7
:1008DA007F03120259D2B47508017509207B007A88
:0808EA000079087F03020259A6
:100B65008F087E087F1B120AF27E087F1E120AF28A
:0C0B7500AF08120B1C7E087F1B020AF266
:06053E008B088A09890AFE
:10054400750B10900001120436FFE4FCFDFE7810D8
:100554001204BEC004C005C006C00712041DFFE497
:10056400FCFDFE78181204BED003D002D001D000E6
:10057400EF4BFFEE4AFEED49FDEC48FCC004C0051C
:10058400C006C007AB08AA09A90A900002120436E3
:10059400FFE4FCFDFE78081204BED003D002D001B3
:1005A400D000EF4BFFEE4AFEED49FDEC48FCC004E1
:1005B400C005C006C007AB08AA09A90A9000031227
:1005C4000436FFD003D002D001D000EB4FF510EA7F
:1005D400F50FE9F50EE8F50DE4F50CE50CC3950B04
:1005E4005037E50C75F005A4243BF582E43408F596
:1005F400831204D1AB10AA0FA90EA80DC31204AD27
:100604007013E50C75F005A4243AF582E43408F57A
:0B06140083E493FF22050C80C27F00EE
:01061F0022B8
:100A6C00C202EF602024AA600D14601024027012E0
:100A7C00D205D202800FC205D2028009B205D20281
:0D0A8C008003120B65300205A205B392B283
:010A9900223A
:10098000D2AF12088A1200037B007A007934120A6F
:100990000550F57E087F2E120AF2AF341209C3AF5C
:1009A000351209C3AF361209C3AF371209C37E0827
:1009B0007F1B120AF27B007A00793412053E120A7C
:0309C0006C80C583
:020BF200C1013F
:050BFD00C2ABD2012291
:100B4300E4F50D750E01F50F751001F511F512F5AC
:100B530013F514F515F516F517FB7A00790DFF0259
:020B630000662A
:100A9A00E4F508F509A20233FFF50A750B02E4F53D
:100AAA000C74FFF50DF50E8F0FF51075110B7512FD
:0C0ABA00FD7B007A0079087F01020066D5
:100B8100E4FFFEF58AF58CD28C20B505E58C30E7C3
:0B0B9100F8C28CAF8CEFFEAD8AEDFFC8
:010B9C002236
:100B9D00E4FFFEF58AF58CD28C30B505E58C30E797
:0B0BAD00F8C28CAF8CEFFEAD8AEDFFAC
:010BB800221A
:060620008B0D8A0E890F0C
:10062600120B9D8E108F11C3E5119466E510940E82
:10063600400BD3E5119400E51094124002C322E466
:10064600FCE4F512120B818E108F11C3E51194B8DC
:10065600E5109400400BD3E51194E1E510940240B7
:1006660002C322120B9D8E108F11C3E51194B8E5BB
:10067600109400400BD3E5119433E5109407400223
:10068600C322AB0DECFF3395E0FEE50F2FF9E50E27
:100696003EFA12041DC313120463D3E5119408E550
:1006A6001094044018AB0DECFF3395E0FEE50F2FD8
:1006B600F9E50E3EFA12041D44801204630512C3C6
:1006C600E51264809488500302064A0CEC640460C8
:0506D60003020647D3FA
:0106DB0022FC
:060A05008B088A09890A32
:100A0B00C202200102C322120B43120B81D3EF94BB
:100A1B00B8EE940B4013EF9433EE9422500BAB08CB
:0F0A2B00AA09A90A1206209202C201D2ABA202A6
:010A3A002299
:08000300D202120A9AC2012286
:080BF500C202120A9AC2012299
:0C0BD400300002B2B4E51C6002151C22C7
:100AC600E4F521752201A20633FFF523752401E41E
:100AD600F5257526FF75276F8F287529FF752A0B53
:0C0AE600752BD4FB7A007921FF0200661A
:02006100C322B8
:0C0BE000D2B4C200E4F51CD206020AC622
:0D000E00C206120AC6D2B4C200E4F51C22DC
:100A3B00751B02120BE020011C751C0AD200E51C71
:100A4B0070FCC20030010EC201D2AB7F017E0012DE
:100A5B000BB9D51BE112000EE51B7003D38001C34C
:010A6B002268
:0300000002078F65
:0C078F00787FE4F6D8FD7581370207D6AC
:10041D00BB010689828A83E0225002E722BBFE02DD
:09042D00E32289828A83E4932210
:10043600BB010CE58229F582E5833AF583E022507B
:1004460006E92582F8E622BBFE06E92582F8E222C5
:0D045600E58229F582E5833AF583E49322DF
:10046300BB010689828A83F0225002F722BBFE0178
:02047300F32272
:10047500BB0110E58229F582E5833AF583E0F5F0C5
:10048500A3E0225009E92582F886F008E622BBFEA2
:100495000AE92582F8E2F5F008E222E5832AF583E8
:0804A500E993F5F0A3E99322AD
:1004AD00EB9FF5F0EA9E42F0E99D42F0E89C45F0A5
:0104BD00221C
:1004BE00E8600FEFC333FFEE33FEED33FDEC33FC9C
:0304CE00D8F12240
:1004D100E493FC740193FD740293FE740393FF2271
:1004E100BB010DE58229F582E5833AF583020520FA
:1004F1005007E92582F8020517BBFE07E92582F8B6
:10050100020529E58229F582E5833AF58302053260
:060511008A838982E47375
:10079B00020980E493A3F8E493A34003F68001F2EB
:1007AB0008DFF48029E493A3F85407240CC8C3335F
:1007BB00C4540F4420C8834004F456800146F6DF2E
:1007CB00E4800B0102040810204080900BECE47EC7
:1007DB00019360BCA3FF543F30E509541FFEE49323
:1007EB00A360010ECF54C025E060A840B8E493A3EA
:1007FB00FAE493A3F8E493A3C8C582C8CAC583CA15
:10080B00F0A3C8C582C8CAC583CADFE9DEE780BECC
:010BF4000000
:09051700E6FB08E6FA08E6F92209
:09052000E0FBA3E0FAA3E0F922DC
:09052900E2FB08E2FA08E2F92203
:0C053200E493FB740193FA740293F92225
:00000001FF
